{
  "contractName": "Voting",
  "abi": [
    {
      "inputs": [
        {
          "internalType": "address",
          "name": "",
          "type": "address"
        }
      ],
      "name": "hasVoted",
      "outputs": [
        {
          "internalType": "bool",
          "name": "",
          "type": "bool"
        }
      ],
      "stateMutability": "view",
      "type": "function",
      "constant": true
    },
    {
      "inputs": [
        {
          "internalType": "uint256",
          "name": "",
          "type": "uint256"
        }
      ],
      "name": "options",
      "outputs": [
        {
          "internalType": "string",
          "name": "name",
          "type": "string"
        },
        {
          "internalType": "uint256",
          "name": "voteCount",
          "type": "uint256"
        }
      ],
      "stateMutability": "view",
      "type": "function",
      "constant": true
    },
    {
      "inputs": [
        {
          "internalType": "string",
          "name": "_name",
          "type": "string"
        }
      ],
      "name": "createOption",
      "outputs": [],
      "stateMutability": "nonpayable",
      "type": "function"
    },
    {
      "inputs": [
        {
          "internalType": "uint256",
          "name": "_optionIndex",
          "type": "uint256"
        }
      ],
      "name": "vote",
      "outputs": [],
      "stateMutability": "nonpayable",
      "type": "function"
    },
    {
      "inputs": [],
      "name": "getOptionCount",
      "outputs": [
        {
          "internalType": "uint256",
          "name": "",
          "type": "uint256"
        }
      ],
      "stateMutability": "view",
      "type": "function",
      "constant": true
    },
    {
      "inputs": [
        {
          "internalType": "uint256",
          "name": "_optionIndex",
          "type": "uint256"
        }
      ],
      "name": "getOption",
      "outputs": [
        {
          "internalType": "string",
          "name": "",
          "type": "string"
        },
        {
          "internalType": "uint256",
          "name": "",
          "type": "uint256"
        }
      ],
      "stateMutability": "view",
      "type": "function",
      "constant": true
    }
  ],
  "bytecode": "0x608060405234801561000f575f80fd5b50610cf18061001d5f395ff3fe608060405234801561000f575f80fd5b5060043610610060575f3560e01c80630121b93f1461006457806309eef43e146100805780631ce5e9a6146100b0578063265875a1146100e1578063409e2205146100fd578063a6bd54271461012e575b5f80fd5b61007e6004803603810190610079919061054b565b61014c565b005b61009a600480360381019061009591906105d0565b6102aa565b6040516100a79190610615565b60405180910390f35b6100ca60048036038101906100c5919061054b565b6102c7565b6040516100d89291906106c7565b60405180910390f35b6100fb60048036038101906100f69190610821565b6103e9565b005b6101176004803603810190610112919061054b565b610448565b6040516101259291906106c7565b60405180910390f35b6101366104fc565b6040516101439190610868565b60405180910390f35b5f805490508110610192576040517f08c379a0000000000000000000000000000000000000000000000000000000008152600401610189906108cb565b60405180910390fd5b60015f3373ffffffffffffffffffffffffffffffffffffffff1673ffffffffffffffffffffffffffffffffffffffff1681526020019081526020015f205f9054906101000a900460ff161561021c576040517f08c379a000000000000000000000000000000000000000000000000000000000815260040161021390610933565b60405180910390fd5b5f818154811061022f5761022e610951565b5b905f5260205f2090600202016001015f81548092919061024e906109ab565b91905055506001805f3373ffffffffffffffffffffffffffffffffffffffff1673ffffffffffffffffffffffffffffffffffffffff1681526020019081526020015f205f6101000a81548160ff02191690831515021790555050565b6001602052805f5260405f205f915054906101000a900460ff1681565b60605f80805490508310610310576040517f08c379a0000000000000000000000000000000000000000000000000000000008152600401610307906108cb565b60405180910390fd5b5f80848154811061032457610323610951565b5b905f5260205f2090600202016040518060400160405290815f8201805461034a90610a1f565b80601f016020809104026020016040519081016040528092919081815260200182805461037690610a1f565b80156103c15780601f10610398576101008083540402835291602001916103c1565b820191905f5260205f20905b8154815290600101906020018083116103a457829003601f168201915b505050505081526020016001820154815250509050805f015181602001519250925050915091565b5f60405180604001604052808381526020015f815250908060018154018082558091505060019003905f5260205f2090600202015f909190919091505f820151815f0190816104389190610bec565b5060208201518160010155505050565b5f8181548110610456575f80fd5b905f5260205f2090600202015f91509050805f01805461047590610a1f565b80601f01602080910402602001604051908101604052809291908181526020018280546104a190610a1f565b80156104ec5780601f106104c3576101008083540402835291602001916104ec565b820191905f5260205f20905b8154815290600101906020018083116104cf57829003601f168201915b5050505050908060010154905082565b5f8080549050905090565b5f604051905090565b5f80fd5b5f80fd5b5f819050919050565b61052a81610518565b8114610534575f80fd5b50565b5f8135905061054581610521565b92915050565b5f602082840312156105605761055f610510565b5b5f61056d84828501610537565b91505092915050565b5f73ffffffffffffffffffffffffffffffffffffffff82169050919050565b5f61059f82610576565b9050919050565b6105af81610595565b81146105b9575f80fd5b50565b5f813590506105ca816105a6565b92915050565b5f602082840312156105e5576105e4610510565b5b5f6105f2848285016105bc565b91505092915050565b5f8115159050919050565b61060f816105fb565b82525050565b5f6020820190506106285f830184610606565b92915050565b5f81519050919050565b5f82825260208201905092915050565b5f5b8381101561066557808201518184015260208101905061064a565b5f8484015250505050565b5f601f19601f8301169050919050565b5f61068a8261062e565b6106948185610638565b93506106a4818560208601610648565b6106ad81610670565b840191505092915050565b6106c181610518565b82525050565b5f6040820190508181035f8301526106df8185610680565b90506106ee60208301846106b8565b9392505050565b5f80fd5b5f80fd5b7f4e487b71000000000000000000000000000000000000000000000000000000005f52604160045260245ffd5b61073382610670565b810181811067ffffffffffffffff82111715610752576107516106fd565b5b80604052505050565b5f610764610507565b9050610770828261072a565b919050565b5f67ffffffffffffffff82111561078f5761078e6106fd565b5b61079882610670565b9050602081019050919050565b828183375f83830152505050565b5f6107c56107c084610775565b61075b565b9050828152602081018484840111156107e1576107e06106f9565b5b6107ec8482856107a5565b509392505050565b5f82601f830112610808576108076106f5565b5b81356108188482602086016107b3565b91505092915050565b5f6020828403121561083657610835610510565b5b5f82013567ffffffffffffffff81111561085357610852610514565b5b61085f848285016107f4565b91505092915050565b5f60208201905061087b5f8301846106b8565b92915050565b7f496e76616c6964206f7074696f6e0000000000000000000000000000000000005f82015250565b5f6108b5600e83610638565b91506108c082610881565b602082019050919050565b5f6020820190508181035f8301526108e2816108a9565b9050919050565b7f416c726561647920766f746564000000000000000000000000000000000000005f82015250565b5f61091d600d83610638565b9150610928826108e9565b602082019050919050565b5f6020820190508181035f83015261094a81610911565b9050919050565b7f4e487b71000000000000000000000000000000000000000000000000000000005f52603260045260245ffd5b7f4e487b71000000000000000000000000000000000000000000000000000000005f52601160045260245ffd5b5f6109b582610518565b91507fffffffffffffffffffffffffffffffffffffffffffffffffffffffffffffffff82036109e7576109e661097e565b5b600182019050919050565b7f4e487b71000000000000000000000000000000000000000000000000000000005f52602260045260245ffd5b5f6002820490506001821680610a3657607f821691505b602082108103610a4957610a486109f2565b5b50919050565b5f819050815f5260205f209050919050565b5f6020601f8301049050919050565b5f82821b905092915050565b5f60088302610aab7fffffffffffffffffffffffffffffffffffffffffffffffffffffffffffffffff82610a70565b610ab58683610a70565b95508019841693508086168417925050509392505050565b5f819050919050565b5f610af0610aeb610ae684610518565b610acd565b610518565b9050919050565b5f819050919050565b610b0983610ad6565b610b1d610b1582610af7565b848454610a7c565b825550505050565b5f90565b610b31610b25565b610b3c818484610b00565b505050565b5b81811015610b5f57610b545f82610b29565b600181019050610b42565b5050565b601f821115610ba457610b7581610a4f565b610b7e84610a61565b81016020851015610b8d578190505b610ba1610b9985610a61565b830182610b41565b50505b505050565b5f82821c905092915050565b5f610bc45f1984600802610ba9565b1980831691505092915050565b5f610bdc8383610bb5565b9150826002028217905092915050565b610bf58261062e565b67ffffffffffffffff811115610c0e57610c0d6106fd565b5b610c188254610a1f565b610c23828285610b63565b5f60209050601f831160018114610c54575f8415610c42578287015190505b610c4c8582610bd1565b865550610cb3565b601f198416610c6286610a4f565b5f5b82811015610c8957848901518255600182019150602085019450602081019050610c64565b86831015610ca65784890151610ca2601f891682610bb5565b8355505b6001600288020188555050505b50505050505056fea2646970667358221220bc5ef1a79a5a08eb9306c292b71c1fd6ea02f80db8690dbe34c670ad0ff6523164736f6c63430008140033",
  "immutableReferences": {},
  "source": "pragma solidity ^0.8.0;\r\n// SPDX-License-Identifier: MIT\r\ncontract Voting {\r\n    struct Option {\r\n        string name;\r\n        uint256 voteCount;\r\n    }\r\n\r\n    Option[] public options;\r\n    mapping(address => bool) public hasVoted;\r\n\r\n    function createOption(string memory _name) public {\r\n        options.push(Option(_name, 0));\r\n    }\r\n\r\n    function vote(uint256 _optionIndex) public {\r\n        require(_optionIndex < options.length, \"Invalid option\");\r\n        require(!hasVoted[msg.sender], \"Already voted\");\r\n\r\n        options[_optionIndex].voteCount++;\r\n        hasVoted[msg.sender] = true;\r\n    }\r\n\r\n    function getOptionCount() public view returns (uint256) {\r\n        return options.length;\r\n    }\r\n\r\n    function getOption(uint256 _optionIndex) public view returns (string memory, uint256) {\r\n        require(_optionIndex < options.length, \"Invalid option\");\r\n\r\n        Option memory option = options[_optionIndex];\r\n        return (option.name, option.voteCount);\r\n    }\r\n}\r\n",
  "sourcePath": "c:\\Users\\17473\\Desktop\\test\\contracts\\NewContract.sol",
  "compiler": {
    "name": "solc",
    "version": "0.8.20+commit.a1b79de6.Emscripten.clang"
  },
  "schemaVersion": "3.4.14",
  "updatedAt": "2023-06-02T14:46:11.449Z",
  "networkType": "ethereum",
  "devdoc": {
    "kind": "dev",
    "methods": {},
    "version": 1
  },
  "userdoc": {
    "kind": "user",
    "methods": {},
    "version": 1
  }
}